{
  "_format": "hh-sol-artifact-1",
  "contractName": "GelatoArt",
  "sourceName": "contracts/GelatoArt.sol",
  "abi": [
    {
      "inputs": [],
      "stateMutability": "nonpayable",
      "type": "constructor"
    },
    {
      "anonymous": false,
      "inputs": [
        {
          "indexed": true,
          "internalType": "address",
          "name": "owner",
          "type": "address"
        },
        {
          "indexed": true,
          "internalType": "address",
          "name": "approved",
          "type": "address"
        },
        {
          "indexed": true,
          "internalType": "uint256",
          "name": "tokenId",
          "type": "uint256"
        }
      ],
      "name": "Approval",
      "type": "event"
    },
    {
      "anonymous": false,
      "inputs": [
        {
          "indexed": true,
          "internalType": "address",
          "name": "owner",
          "type": "address"
        },
        {
          "indexed": true,
          "internalType": "address",
          "name": "operator",
          "type": "address"
        },
        {
          "indexed": false,
          "internalType": "bool",
          "name": "approved",
          "type": "bool"
        }
      ],
      "name": "ApprovalForAll",
      "type": "event"
    },
    {
      "anonymous": false,
      "inputs": [
        {
          "indexed": true,
          "internalType": "address",
          "name": "from",
          "type": "address"
        },
        {
          "indexed": true,
          "internalType": "address",
          "name": "to",
          "type": "address"
        },
        {
          "indexed": true,
          "internalType": "uint256",
          "name": "tokenId",
          "type": "uint256"
        }
      ],
      "name": "Transfer",
      "type": "event"
    },
    {
      "inputs": [
        {
          "internalType": "address",
          "name": "to",
          "type": "address"
        },
        {
          "internalType": "uint256",
          "name": "tokenId",
          "type": "uint256"
        }
      ],
      "name": "approve",
      "outputs": [],
      "stateMutability": "nonpayable",
      "type": "function"
    },
    {
      "inputs": [
        {
          "internalType": "address",
          "name": "owner",
          "type": "address"
        }
      ],
      "name": "balanceOf",
      "outputs": [
        {
          "internalType": "uint256",
          "name": "",
          "type": "uint256"
        }
      ],
      "stateMutability": "view",
      "type": "function"
    },
    {
      "inputs": [
        {
          "internalType": "uint256",
          "name": "tokenId",
          "type": "uint256"
        }
      ],
      "name": "getApproved",
      "outputs": [
        {
          "internalType": "address",
          "name": "",
          "type": "address"
        }
      ],
      "stateMutability": "view",
      "type": "function"
    },
    {
      "inputs": [
        {
          "internalType": "address",
          "name": "owner",
          "type": "address"
        },
        {
          "internalType": "address",
          "name": "operator",
          "type": "address"
        }
      ],
      "name": "isApprovedForAll",
      "outputs": [
        {
          "internalType": "bool",
          "name": "",
          "type": "bool"
        }
      ],
      "stateMutability": "view",
      "type": "function"
    },
    {
      "inputs": [
        {
          "internalType": "address",
          "name": "forwarder",
          "type": "address"
        }
      ],
      "name": "isTrustedForwarder",
      "outputs": [
        {
          "internalType": "bool",
          "name": "",
          "type": "bool"
        }
      ],
      "stateMutability": "view",
      "type": "function"
    },
    {
      "inputs": [
        {
          "internalType": "address",
          "name": "recipient",
          "type": "address"
        },
        {
          "internalType": "string",
          "name": "tokenURI",
          "type": "string"
        }
      ],
      "name": "mint",
      "outputs": [
        {
          "internalType": "uint256",
          "name": "",
          "type": "uint256"
        }
      ],
      "stateMutability": "payable",
      "type": "function"
    },
    {
      "inputs": [],
      "name": "name",
      "outputs": [
        {
          "internalType": "string",
          "name": "",
          "type": "string"
        }
      ],
      "stateMutability": "view",
      "type": "function"
    },
    {
      "inputs": [
        {
          "internalType": "uint256",
          "name": "tokenId",
          "type": "uint256"
        }
      ],
      "name": "ownerOf",
      "outputs": [
        {
          "internalType": "address",
          "name": "",
          "type": "address"
        }
      ],
      "stateMutability": "view",
      "type": "function"
    },
    {
      "inputs": [
        {
          "internalType": "address",
          "name": "from",
          "type": "address"
        },
        {
          "internalType": "address",
          "name": "to",
          "type": "address"
        },
        {
          "internalType": "uint256",
          "name": "tokenId",
          "type": "uint256"
        }
      ],
      "name": "safeTransferFrom",
      "outputs": [],
      "stateMutability": "nonpayable",
      "type": "function"
    },
    {
      "inputs": [
        {
          "internalType": "address",
          "name": "from",
          "type": "address"
        },
        {
          "internalType": "address",
          "name": "to",
          "type": "address"
        },
        {
          "internalType": "uint256",
          "name": "tokenId",
          "type": "uint256"
        },
        {
          "internalType": "bytes",
          "name": "data",
          "type": "bytes"
        }
      ],
      "name": "safeTransferFrom",
      "outputs": [],
      "stateMutability": "nonpayable",
      "type": "function"
    },
    {
      "inputs": [
        {
          "internalType": "address",
          "name": "operator",
          "type": "address"
        },
        {
          "internalType": "bool",
          "name": "approved",
          "type": "bool"
        }
      ],
      "name": "setApprovalForAll",
      "outputs": [],
      "stateMutability": "nonpayable",
      "type": "function"
    },
    {
      "inputs": [
        {
          "internalType": "bytes4",
          "name": "interfaceId",
          "type": "bytes4"
        }
      ],
      "name": "supportsInterface",
      "outputs": [
        {
          "internalType": "bool",
          "name": "",
          "type": "bool"
        }
      ],
      "stateMutability": "view",
      "type": "function"
    },
    {
      "inputs": [],
      "name": "symbol",
      "outputs": [
        {
          "internalType": "string",
          "name": "",
          "type": "string"
        }
      ],
      "stateMutability": "view",
      "type": "function"
    },
    {
      "inputs": [
        {
          "internalType": "uint256",
          "name": "index",
          "type": "uint256"
        }
      ],
      "name": "tokenByIndex",
      "outputs": [
        {
          "internalType": "uint256",
          "name": "",
          "type": "uint256"
        }
      ],
      "stateMutability": "view",
      "type": "function"
    },
    {
      "inputs": [
        {
          "internalType": "address",
          "name": "owner",
          "type": "address"
        },
        {
          "internalType": "uint256",
          "name": "index",
          "type": "uint256"
        }
      ],
      "name": "tokenOfOwnerByIndex",
      "outputs": [
        {
          "internalType": "uint256",
          "name": "",
          "type": "uint256"
        }
      ],
      "stateMutability": "view",
      "type": "function"
    },
    {
      "inputs": [
        {
          "internalType": "uint256",
          "name": "tokenId",
          "type": "uint256"
        }
      ],
      "name": "tokenURI",
      "outputs": [
        {
          "internalType": "string",
          "name": "",
          "type": "string"
        }
      ],
      "stateMutability": "view",
      "type": "function"
    },
    {
      "inputs": [],
      "name": "totalSupply",
      "outputs": [
        {
          "internalType": "uint256",
          "name": "",
          "type": "uint256"
        }
      ],
      "stateMutability": "view",
      "type": "function"
    },
    {
      "inputs": [
        {
          "internalType": "address",
          "name": "from",
          "type": "address"
        },
        {
          "internalType": "address",
          "name": "to",
          "type": "address"
        },
        {
          "internalType": "uint256",
          "name": "tokenId",
          "type": "uint256"
        }
      ],
      "name": "transferFrom",
      "outputs": [],
      "stateMutability": "nonpayable",
      "type": "function"
    }
  ],
  "bytecode": "0x60a06040523480156200001157600080fd5b5073bf175fcc7086b4f9bd59d5eae8ea67b8f940de0d6040518060400160405280600a81526020017f47656c61746f20417274000000000000000000000000000000000000000000008152506040518060400160405280600981526020017f47656c61746f41727400000000000000000000000000000000000000000000008152508160009081620000a491906200036e565b508060019081620000b691906200036e565b5050508073ffffffffffffffffffffffffffffffffffffffff1660808173ffffffffffffffffffffffffffffffffffffffff16815250505062000455565b600081519050919050565b7f4e487b7100000000000000000000000000000000000000000000000000000000600052604160045260246000fd5b7f4e487b7100000000000000000000000000000000000000000000000000000000600052602260045260246000fd5b600060028204905060018216806200017657607f821691505b6020821081036200018c576200018b6200012e565b5b50919050565b60008190508160005260206000209050919050565b60006020601f8301049050919050565b600082821b905092915050565b600060088302620001f67fffffffffffffffffffffffffffffffffffffffffffffffffffffffffffffffff82620001b7565b620002028683620001b7565b95508019841693508086168417925050509392505050565b6000819050919050565b6000819050919050565b60006200024f6200024962000243846200021a565b62000224565b6200021a565b9050919050565b6000819050919050565b6200026b836200022e565b620002836200027a8262000256565b848454620001c4565b825550505050565b600090565b6200029a6200028b565b620002a781848462000260565b505050565b5b81811015620002cf57620002c360008262000290565b600181019050620002ad565b5050565b601f8211156200031e57620002e88162000192565b620002f384620001a7565b8101602085101562000303578190505b6200031b6200031285620001a7565b830182620002ac565b50505b505050565b600082821c905092915050565b6000620003436000198460080262000323565b1980831691505092915050565b60006200035e838362000330565b9150826002028217905092915050565b6200037982620000f4565b67ffffffffffffffff811115620003955762000394620000ff565b5b620003a182546200015d565b620003ae828285620002d3565b600060209050601f831160018114620003e65760008415620003d1578287015190505b620003dd858262000350565b8655506200044d565b601f198416620003f68662000192565b60005b828110156200042057848901518255600182019150602085019450602081019050620003f9565b868310156200044057848901516200043c601f89168262000330565b8355505b6001600288020188555050505b505050505050565b6080516135d862000471600039600061085901526135d86000f3fe6080604052600436106101095760003560e01c8063572b6c0511610095578063a22cb46511610064578063a22cb465146103b5578063b88d4fde146103de578063c87b56dd14610407578063d0def52114610444578063e985e9c51461047457610109565b8063572b6c05146102d35780636352211e1461031057806370a082311461034d57806395d89b411461038a57610109565b806318160ddd116100dc57806318160ddd146101dc57806323b872dd146102075780632f745c591461023057806342842e0e1461026d5780634f6ccce71461029657610109565b806301ffc9a71461010e57806306fdde031461014b578063081812fc14610176578063095ea7b3146101b3575b600080fd5b34801561011a57600080fd5b5061013560048036038101906101309190612250565b6104b1565b6040516101429190612298565b60405180910390f35b34801561015757600080fd5b506101606104c3565b60405161016d9190612343565b60405180910390f35b34801561018257600080fd5b5061019d6004803603810190610198919061239b565b610555565b6040516101aa9190612409565b60405180910390f35b3480156101bf57600080fd5b506101da60048036038101906101d59190612450565b61059b565b005b3480156101e857600080fd5b506101f16106b2565b6040516101fe919061249f565b60405180910390f35b34801561021357600080fd5b5061022e600480360381019061022991906124ba565b6106bf565b005b34801561023c57600080fd5b5061025760048036038101906102529190612450565b61071f565b604051610264919061249f565b60405180910390f35b34801561027957600080fd5b50610294600480360381019061028f91906124ba565b6107c4565b005b3480156102a257600080fd5b506102bd60048036038101906102b8919061239b565b6107e4565b6040516102ca919061249f565b60405180910390f35b3480156102df57600080fd5b506102fa60048036038101906102f5919061250d565b610855565b6040516103079190612298565b60405180910390f35b34801561031c57600080fd5b506103376004803603810190610332919061239b565b6108ad565b6040516103449190612409565b60405180910390f35b34801561035957600080fd5b50610374600480360381019061036f919061250d565b610933565b604051610381919061249f565b60405180910390f35b34801561039657600080fd5b5061039f6109ea565b6040516103ac9190612343565b60405180910390f35b3480156103c157600080fd5b506103dc60048036038101906103d79190612566565b610a7c565b005b3480156103ea57600080fd5b50610405600480360381019061040091906126db565b610a92565b005b34801561041357600080fd5b5061042e6004803603810190610429919061239b565b610af4565b60405161043b9190612343565b60405180910390f35b61045e600480360381019061045991906127ff565b610b06565b60405161046b919061249f565b60405180910390f35b34801561048057600080fd5b5061049b6004803603810190610496919061285b565b610b3e565b6040516104a89190612298565b60405180910390f35b60006104bc82610bd2565b9050919050565b6060600080546104d2906128ca565b80601f01602080910402602001604051908101604052809291908181526020018280546104fe906128ca565b801561054b5780601f106105205761010080835404028352916020019161054b565b820191906000526020600020905b81548152906001019060200180831161052e57829003601f168201915b5050505050905090565b600061056082610c4c565b6004600083815260200190815260200160002060009054906101000a900473ffffffffffffffffffffffffffffffffffffffff169050919050565b60006105a6826108ad565b90508073ffffffffffffffffffffffffffffffffffffffff168373ffffffffffffffffffffffffffffffffffffffff1603610616576040517f08c379a000000000000000000000000000000000000000000000000000000000815260040161060d9061296d565b60405180910390fd5b8073ffffffffffffffffffffffffffffffffffffffff16610635610c97565b73ffffffffffffffffffffffffffffffffffffffff16148061066457506106638161065e610c97565b610b3e565b5b6106a3576040517f08c379a000000000000000000000000000000000000000000000000000000000815260040161069a906129ff565b60405180910390fd5b6106ad8383610ca6565b505050565b6000600880549050905090565b6106d06106ca610c97565b82610d5f565b61070f576040517f08c379a000000000000000000000000000000000000000000000000000000000815260040161070690612a91565b60405180910390fd5b61071a838383610df4565b505050565b600061072a83610933565b821061076b576040517f08c379a000000000000000000000000000000000000000000000000000000000815260040161076290612b23565b60405180910390fd5b600660008473ffffffffffffffffffffffffffffffffffffffff1673ffffffffffffffffffffffffffffffffffffffff168152602001908152602001600020600083815260200190815260200160002054905092915050565b6107df83838360405180602001604052806000815250610a92565b505050565b60006107ee6106b2565b821061082f576040517f08c379a000000000000000000000000000000000000000000000000000000000815260040161082690612bb5565b60405180910390fd5b6008828154811061084357610842612bd5565b5b90600052602060002001549050919050565b60007f000000000000000000000000000000000000000000000000000000000000000073ffffffffffffffffffffffffffffffffffffffff168273ffffffffffffffffffffffffffffffffffffffff16149050919050565b6000806108b9836110ed565b9050600073ffffffffffffffffffffffffffffffffffffffff168173ffffffffffffffffffffffffffffffffffffffff160361092a576040517f08c379a000000000000000000000000000000000000000000000000000000000815260040161092190612c50565b60405180910390fd5b80915050919050565b60008073ffffffffffffffffffffffffffffffffffffffff168273ffffffffffffffffffffffffffffffffffffffff16036109a3576040517f08c379a000000000000000000000000000000000000000000000000000000000815260040161099a90612ce2565b60405180910390fd5b600360008373ffffffffffffffffffffffffffffffffffffffff1673ffffffffffffffffffffffffffffffffffffffff168152602001908152602001600020549050919050565b6060600180546109f9906128ca565b80601f0160208091040260200160405190810160405280929190818152602001828054610a25906128ca565b8015610a725780601f10610a4757610100808354040283529160200191610a72565b820191906000526020600020905b815481529060010190602001808311610a5557829003601f168201915b5050505050905090565b610a8e610a87610c97565b838361112a565b5050565b610aa3610a9d610c97565b83610d5f565b610ae2576040517f08c379a0000000000000000000000000000000000000000000000000000000008152600401610ad990612a91565b60405180910390fd5b610aee84848484611296565b50505050565b6060610aff826112f2565b9050919050565b6000610b12600b611404565b6000610b1e600b61141a565b9050610b2a8482611428565b610b348184611446565b8091505092915050565b6000600560008473ffffffffffffffffffffffffffffffffffffffff1673ffffffffffffffffffffffffffffffffffffffff16815260200190815260200160002060008373ffffffffffffffffffffffffffffffffffffffff1673ffffffffffffffffffffffffffffffffffffffff16815260200190815260200160002060009054906101000a900460ff16905092915050565b60007f780e9d63000000000000000000000000000000000000000000000000000000007bffffffffffffffffffffffffffffffffffffffffffffffffffffffff1916827bffffffffffffffffffffffffffffffffffffffffffffffffffffffff19161480610c455750610c44826114b3565b5b9050919050565b610c5581611595565b610c94576040517f08c379a0000000000000000000000000000000000000000000000000000000008152600401610c8b90612c50565b60405180910390fd5b50565b6000610ca16115d6565b905090565b816004600083815260200190815260200160002060006101000a81548173ffffffffffffffffffffffffffffffffffffffff021916908373ffffffffffffffffffffffffffffffffffffffff160217905550808273ffffffffffffffffffffffffffffffffffffffff16610d19836108ad565b73ffffffffffffffffffffffffffffffffffffffff167f8c5be1e5ebec7d5bd14f71427d1e84f3dd0314c0f7b2291e5b200ac8c7c3b92560405160405180910390a45050565b600080610d6b836108ad565b90508073ffffffffffffffffffffffffffffffffffffffff168473ffffffffffffffffffffffffffffffffffffffff161480610dad5750610dac8185610b3e565b5b80610deb57508373ffffffffffffffffffffffffffffffffffffffff16610dd384610555565b73ffffffffffffffffffffffffffffffffffffffff16145b91505092915050565b8273ffffffffffffffffffffffffffffffffffffffff16610e14826108ad565b73ffffffffffffffffffffffffffffffffffffffff1614610e6a576040517f08c379a0000000000000000000000000000000000000000000000000000000008152600401610e6190612d74565b60405180910390fd5b600073ffffffffffffffffffffffffffffffffffffffff168273ffffffffffffffffffffffffffffffffffffffff1603610ed9576040517f08c379a0000000000000000000000000000000000000000000000000000000008152600401610ed090612e06565b60405180910390fd5b610ee68383836001611608565b8273ffffffffffffffffffffffffffffffffffffffff16610f06826108ad565b73ffffffffffffffffffffffffffffffffffffffff1614610f5c576040517f08c379a0000000000000000000000000000000000000000000000000000000008152600401610f5390612d74565b60405180910390fd5b6004600082815260200190815260200160002060006101000a81549073ffffffffffffffffffffffffffffffffffffffff02191690556001600360008573ffffffffffffffffffffffffffffffffffffffff1673ffffffffffffffffffffffffffffffffffffffff168152602001908152602001600020600082825403925050819055506001600360008473ffffffffffffffffffffffffffffffffffffffff1673ffffffffffffffffffffffffffffffffffffffff16815260200190815260200160002060008282540192505081905550816002600083815260200190815260200160002060006101000a81548173ffffffffffffffffffffffffffffffffffffffff021916908373ffffffffffffffffffffffffffffffffffffffff160217905550808273ffffffffffffffffffffffffffffffffffffffff168473ffffffffffffffffffffffffffffffffffffffff167fddf252ad1be2c89b69c2b068fc378daa952ba7f163c4a11628f55a4df523b3ef60405160405180910390a46110e8838383600161161a565b505050565b60006002600083815260200190815260200160002060009054906101000a900473ffffffffffffffffffffffffffffffffffffffff169050919050565b8173ffffffffffffffffffffffffffffffffffffffff168373ffffffffffffffffffffffffffffffffffffffff1603611198576040517f08c379a000000000000000000000000000000000000000000000000000000000815260040161118f90612e72565b60405180910390fd5b80600560008573ffffffffffffffffffffffffffffffffffffffff1673ffffffffffffffffffffffffffffffffffffffff16815260200190815260200160002060008473ffffffffffffffffffffffffffffffffffffffff1673ffffffffffffffffffffffffffffffffffffffff16815260200190815260200160002060006101000a81548160ff0219169083151502179055508173ffffffffffffffffffffffffffffffffffffffff168373ffffffffffffffffffffffffffffffffffffffff167f17307eab39ab6107e8899845ad3d59bd9653f200f220920489ca2b5937696c31836040516112899190612298565b60405180910390a3505050565b6112a1848484610df4565b6112ad84848484611620565b6112ec576040517f08c379a00000000000000000000000000000000000000000000000000000000081526004016112e390612f04565b60405180910390fd5b50505050565b60606112fd82610c4c565b6000600a6000848152602001908152602001600020805461131d906128ca565b80601f0160208091040260200160405190810160405280929190818152602001828054611349906128ca565b80156113965780601f1061136b57610100808354040283529160200191611396565b820191906000526020600020905b81548152906001019060200180831161137957829003601f168201915b5050505050905060006113a76117a7565b905060008151036113bc5781925050506113ff565b6000825111156113f15780826040516020016113d9929190612f60565b604051602081830303815290604052925050506113ff565b6113fa846117e4565b925050505b919050565b6001816000016000828254019250508190555050565b600081600001549050919050565b61144282826040518060200160405280600081525061184c565b5050565b61144f82611595565b61148e576040517f08c379a000000000000000000000000000000000000000000000000000000000815260040161148590612ff6565b60405180910390fd5b80600a600084815260200190815260200160002090816114ae91906131c2565b505050565b60007f80ac58cd000000000000000000000000000000000000000000000000000000007bffffffffffffffffffffffffffffffffffffffffffffffffffffffff1916827bffffffffffffffffffffffffffffffffffffffffffffffffffffffff1916148061157e57507f5b5e139f000000000000000000000000000000000000000000000000000000007bffffffffffffffffffffffffffffffffffffffffffffffffffffffff1916827bffffffffffffffffffffffffffffffffffffffffffffffffffffffff1916145b8061158e575061158d826118a7565b5b9050919050565b60008073ffffffffffffffffffffffffffffffffffffffff166115b7836110ed565b73ffffffffffffffffffffffffffffffffffffffff1614159050919050565b60006115e133610855565b156115f557601436033560601c9050611604565b6115fd611911565b9050611605565b5b90565b61161484848484611919565b50505050565b50505050565b60006116418473ffffffffffffffffffffffffffffffffffffffff16611a77565b1561179a578373ffffffffffffffffffffffffffffffffffffffff1663150b7a0261166a610c97565b8786866040518563ffffffff1660e01b815260040161168c94939291906132e9565b6020604051808303816000875af19250505080156116c857506040513d601f19601f820116820180604052508101906116c5919061334a565b60015b61174a573d80600081146116f8576040519150601f19603f3d011682016040523d82523d6000602084013e6116fd565b606091505b506000815103611742576040517f08c379a000000000000000000000000000000000000000000000000000000000815260040161173990612f04565b60405180910390fd5b805181602001fd5b63150b7a0260e01b7bffffffffffffffffffffffffffffffffffffffffffffffffffffffff1916817bffffffffffffffffffffffffffffffffffffffffffffffffffffffff19161491505061179f565b600190505b949350505050565b60606040518060400160405280601581526020017f68747470733a2f2f697066732e696f2f697066732f0000000000000000000000815250905090565b60606117ef82610c4c565b60006117f96117a7565b905060008151116118195760405180602001604052806000815250611844565b8061182384611a9a565b604051602001611834929190612f60565b6040516020818303038152906040525b915050919050565b6118568383611b68565b6118636000848484611620565b6118a2576040517f08c379a000000000000000000000000000000000000000000000000000000000815260040161189990612f04565b60405180910390fd5b505050565b60007f01ffc9a7000000000000000000000000000000000000000000000000000000007bffffffffffffffffffffffffffffffffffffffffffffffffffffffff1916827bffffffffffffffffffffffffffffffffffffffffffffffffffffffff1916149050919050565b600033905090565b61192584848484611d85565b6001811115611969576040517f08c379a0000000000000000000000000000000000000000000000000000000008152600401611960906133e9565b60405180910390fd5b6000829050600073ffffffffffffffffffffffffffffffffffffffff168573ffffffffffffffffffffffffffffffffffffffff16036119b0576119ab81611d8b565b6119ef565b8373ffffffffffffffffffffffffffffffffffffffff168573ffffffffffffffffffffffffffffffffffffffff16146119ee576119ed8582611dd4565b5b5b600073ffffffffffffffffffffffffffffffffffffffff168473ffffffffffffffffffffffffffffffffffffffff1603611a3157611a2c81611f41565b611a70565b8473ffffffffffffffffffffffffffffffffffffffff168473ffffffffffffffffffffffffffffffffffffffff1614611a6f57611a6e8482612012565b5b5b5050505050565b6000808273ffffffffffffffffffffffffffffffffffffffff163b119050919050565b606060006001611aa984612091565b01905060008167ffffffffffffffff811115611ac857611ac76125b0565b5b6040519080825280601f01601f191660200182016040528015611afa5781602001600182028036833780820191505090505b509050600082602001820190505b600115611b5d578080600190039150507f3031323334353637383961626364656600000000000000000000000000000000600a86061a8153600a8581611b5157611b50613409565b5b04945060008503611b08575b819350505050919050565b600073ffffffffffffffffffffffffffffffffffffffff168273ffffffffffffffffffffffffffffffffffffffff1603611bd7576040517f08c379a0000000000000000000000000000000000000000000000000000000008152600401611bce90613484565b60405180910390fd5b611be081611595565b15611c20576040517f08c379a0000000000000000000000000000000000000000000000000000000008152600401611c17906134f0565b60405180910390fd5b611c2e600083836001611608565b611c3781611595565b15611c77576040517f08c379a0000000000000000000000000000000000000000000000000000000008152600401611c6e906134f0565b60405180910390fd5b6001600360008473ffffffffffffffffffffffffffffffffffffffff1673ffffffffffffffffffffffffffffffffffffffff16815260200190815260200160002060008282540192505081905550816002600083815260200190815260200160002060006101000a81548173ffffffffffffffffffffffffffffffffffffffff021916908373ffffffffffffffffffffffffffffffffffffffff160217905550808273ffffffffffffffffffffffffffffffffffffffff16600073ffffffffffffffffffffffffffffffffffffffff167fddf252ad1be2c89b69c2b068fc378daa952ba7f163c4a11628f55a4df523b3ef60405160405180910390a4611d8160008383600161161a565b5050565b50505050565b6008805490506009600083815260200190815260200160002081905550600881908060018154018082558091505060019003906000526020600020016000909190919091505550565b60006001611de184610933565b611deb919061353f565b9050600060076000848152602001908152602001600020549050818114611ed0576000600660008673ffffffffffffffffffffffffffffffffffffffff1673ffffffffffffffffffffffffffffffffffffffff168152602001908152602001600020600084815260200190815260200160002054905080600660008773ffffffffffffffffffffffffffffffffffffffff1673ffffffffffffffffffffffffffffffffffffffff168152602001908152602001600020600084815260200190815260200160002081905550816007600083815260200190815260200160002081905550505b6007600084815260200190815260200160002060009055600660008573ffffffffffffffffffffffffffffffffffffffff1673ffffffffffffffffffffffffffffffffffffffff16815260200190815260200160002060008381526020019081526020016000206000905550505050565b60006001600880549050611f55919061353f565b9050600060096000848152602001908152602001600020549050600060088381548110611f8557611f84612bd5565b5b906000526020600020015490508060088381548110611fa757611fa6612bd5565b5b906000526020600020018190555081600960008381526020019081526020016000208190555060096000858152602001908152602001600020600090556008805480611ff657611ff5613573565b5b6001900381819060005260206000200160009055905550505050565b600061201d83610933565b905081600660008573ffffffffffffffffffffffffffffffffffffffff1673ffffffffffffffffffffffffffffffffffffffff168152602001908152602001600020600083815260200190815260200160002081905550806007600084815260200190815260200160002081905550505050565b600080600090507a184f03e93ff9f4daa797ed6e38ed64bf6a1f01000000000000000083106120ef577a184f03e93ff9f4daa797ed6e38ed64bf6a1f01000000000000000083816120e5576120e4613409565b5b0492506040810190505b6d04ee2d6d415b85acef8100000000831061212c576d04ee2d6d415b85acef8100000000838161212257612121613409565b5b0492506020810190505b662386f26fc10000831061215b57662386f26fc10000838161215157612150613409565b5b0492506010810190505b6305f5e1008310612184576305f5e100838161217a57612179613409565b5b0492506008810190505b61271083106121a957612710838161219f5761219e613409565b5b0492506004810190505b606483106121cc57606483816121c2576121c1613409565b5b0492506002810190505b600a83106121db576001810190505b80915050919050565b6000604051905090565b600080fd5b600080fd5b60007fffffffff0000000000000000000000000000000000000000000000000000000082169050919050565b61222d816121f8565b811461223857600080fd5b50565b60008135905061224a81612224565b92915050565b600060208284031215612266576122656121ee565b5b60006122748482850161223b565b91505092915050565b60008115159050919050565b6122928161227d565b82525050565b60006020820190506122ad6000830184612289565b92915050565b600081519050919050565b600082825260208201905092915050565b60005b838110156122ed5780820151818401526020810190506122d2565b60008484015250505050565b6000601f19601f8301169050919050565b6000612315826122b3565b61231f81856122be565b935061232f8185602086016122cf565b612338816122f9565b840191505092915050565b6000602082019050818103600083015261235d818461230a565b905092915050565b6000819050919050565b61237881612365565b811461238357600080fd5b50565b6000813590506123958161236f565b92915050565b6000602082840312156123b1576123b06121ee565b5b60006123bf84828501612386565b91505092915050565b600073ffffffffffffffffffffffffffffffffffffffff82169050919050565b60006123f3826123c8565b9050919050565b612403816123e8565b82525050565b600060208201905061241e60008301846123fa565b92915050565b61242d816123e8565b811461243857600080fd5b50565b60008135905061244a81612424565b92915050565b60008060408385031215612467576124666121ee565b5b60006124758582860161243b565b925050602061248685828601612386565b9150509250929050565b61249981612365565b82525050565b60006020820190506124b46000830184612490565b92915050565b6000806000606084860312156124d3576124d26121ee565b5b60006124e18682870161243b565b93505060206124f28682870161243b565b925050604061250386828701612386565b9150509250925092565b600060208284031215612523576125226121ee565b5b60006125318482850161243b565b91505092915050565b6125438161227d565b811461254e57600080fd5b50565b6000813590506125608161253a565b92915050565b6000806040838503121561257d5761257c6121ee565b5b600061258b8582860161243b565b925050602061259c85828601612551565b9150509250929050565b600080fd5b600080fd5b7f4e487b7100000000000000000000000000000000000000000000000000000000600052604160045260246000fd5b6125e8826122f9565b810181811067ffffffffffffffff82111715612607576126066125b0565b5b80604052505050565b600061261a6121e4565b905061262682826125df565b919050565b600067ffffffffffffffff821115612646576126456125b0565b5b61264f826122f9565b9050602081019050919050565b82818337600083830152505050565b600061267e6126798461262b565b612610565b90508281526020810184848401111561269a576126996125ab565b5b6126a584828561265c565b509392505050565b600082601f8301126126c2576126c16125a6565b5b81356126d284826020860161266b565b91505092915050565b600080600080608085870312156126f5576126f46121ee565b5b60006127038782880161243b565b94505060206127148782880161243b565b935050604061272587828801612386565b925050606085013567ffffffffffffffff811115612746576127456121f3565b5b612752878288016126ad565b91505092959194509250565b600067ffffffffffffffff821115612779576127786125b0565b5b612782826122f9565b9050602081019050919050565b60006127a261279d8461275e565b612610565b9050828152602081018484840111156127be576127bd6125ab565b5b6127c984828561265c565b509392505050565b600082601f8301126127e6576127e56125a6565b5b81356127f684826020860161278f565b91505092915050565b60008060408385031215612816576128156121ee565b5b60006128248582860161243b565b925050602083013567ffffffffffffffff811115612845576128446121f3565b5b612851858286016127d1565b9150509250929050565b60008060408385031215612872576128716121ee565b5b60006128808582860161243b565b92505060206128918582860161243b565b9150509250929050565b7f4e487b7100000000000000000000000000000000000000000000000000000000600052602260045260246000fd5b600060028204905060018216806128e257607f821691505b6020821081036128f5576128f461289b565b5b50919050565b7f4552433732313a20617070726f76616c20746f2063757272656e74206f776e6560008201527f7200000000000000000000000000000000000000000000000000000000000000602082015250565b60006129576021836122be565b9150612962826128fb565b604082019050919050565b600060208201905081810360008301526129868161294a565b9050919050565b7f4552433732313a20617070726f76652063616c6c6572206973206e6f7420746f60008201527f6b656e206f776e6572206f7220617070726f76656420666f7220616c6c000000602082015250565b60006129e9603d836122be565b91506129f48261298d565b604082019050919050565b60006020820190508181036000830152612a18816129dc565b9050919050565b7f4552433732313a2063616c6c6572206973206e6f7420746f6b656e206f776e6560008201527f72206f7220617070726f76656400000000000000000000000000000000000000602082015250565b6000612a7b602d836122be565b9150612a8682612a1f565b604082019050919050565b60006020820190508181036000830152612aaa81612a6e565b9050919050565b7f455243373231456e756d657261626c653a206f776e657220696e646578206f7560008201527f74206f6620626f756e6473000000000000000000000000000000000000000000602082015250565b6000612b0d602b836122be565b9150612b1882612ab1565b604082019050919050565b60006020820190508181036000830152612b3c81612b00565b9050919050565b7f455243373231456e756d657261626c653a20676c6f62616c20696e646578206f60008201527f7574206f6620626f756e64730000000000000000000000000000000000000000602082015250565b6000612b9f602c836122be565b9150612baa82612b43565b604082019050919050565b60006020820190508181036000830152612bce81612b92565b9050919050565b7f4e487b7100000000000000000000000000000000000000000000000000000000600052603260045260246000fd5b7f4552433732313a20696e76616c696420746f6b656e2049440000000000000000600082015250565b6000612c3a6018836122be565b9150612c4582612c04565b602082019050919050565b60006020820190508181036000830152612c6981612c2d565b9050919050565b7f4552433732313a2061646472657373207a65726f206973206e6f74206120766160008201527f6c6964206f776e65720000000000000000000000000000000000000000000000602082015250565b6000612ccc6029836122be565b9150612cd782612c70565b604082019050919050565b60006020820190508181036000830152612cfb81612cbf565b9050919050565b7f4552433732313a207472616e736665722066726f6d20696e636f72726563742060008201527f6f776e6572000000000000000000000000000000000000000000000000000000602082015250565b6000612d5e6025836122be565b9150612d6982612d02565b604082019050919050565b60006020820190508181036000830152612d8d81612d51565b9050919050565b7f4552433732313a207472616e7366657220746f20746865207a65726f2061646460008201527f7265737300000000000000000000000000000000000000000000000000000000602082015250565b6000612df06024836122be565b9150612dfb82612d94565b604082019050919050565b60006020820190508181036000830152612e1f81612de3565b9050919050565b7f4552433732313a20617070726f766520746f2063616c6c657200000000000000600082015250565b6000612e5c6019836122be565b9150612e6782612e26565b602082019050919050565b60006020820190508181036000830152612e8b81612e4f565b9050919050565b7f4552433732313a207472616e7366657220746f206e6f6e20455243373231526560008201527f63656976657220696d706c656d656e7465720000000000000000000000000000602082015250565b6000612eee6032836122be565b9150612ef982612e92565b604082019050919050565b60006020820190508181036000830152612f1d81612ee1565b9050919050565b600081905092915050565b6000612f3a826122b3565b612f448185612f24565b9350612f548185602086016122cf565b80840191505092915050565b6000612f6c8285612f2f565b9150612f788284612f2f565b91508190509392505050565b7f45524337323155524953746f726167653a2055524920736574206f66206e6f6e60008201527f6578697374656e7420746f6b656e000000000000000000000000000000000000602082015250565b6000612fe0602e836122be565b9150612feb82612f84565b604082019050919050565b6000602082019050818103600083015261300f81612fd3565b9050919050565b60008190508160005260206000209050919050565b60006020601f8301049050919050565b600082821b905092915050565b6000600883026130787fffffffffffffffffffffffffffffffffffffffffffffffffffffffffffffffff8261303b565b613082868361303b565b95508019841693508086168417925050509392505050565b6000819050919050565b60006130bf6130ba6130b584612365565b61309a565b612365565b9050919050565b6000819050919050565b6130d9836130a4565b6130ed6130e5826130c6565b848454613048565b825550505050565b600090565b6131026130f5565b61310d8184846130d0565b505050565b5b81811015613131576131266000826130fa565b600181019050613113565b5050565b601f8211156131765761314781613016565b6131508461302b565b8101602085101561315f578190505b61317361316b8561302b565b830182613112565b50505b505050565b600082821c905092915050565b60006131996000198460080261317b565b1980831691505092915050565b60006131b28383613188565b9150826002028217905092915050565b6131cb826122b3565b67ffffffffffffffff8111156131e4576131e36125b0565b5b6131ee82546128ca565b6131f9828285613135565b600060209050601f83116001811461322c576000841561321a578287015190505b61322485826131a6565b86555061328c565b601f19841661323a86613016565b60005b828110156132625784890151825560018201915060208501945060208101905061323d565b8683101561327f578489015161327b601f891682613188565b8355505b6001600288020188555050505b505050505050565b600081519050919050565b600082825260208201905092915050565b60006132bb82613294565b6132c5818561329f565b93506132d58185602086016122cf565b6132de816122f9565b840191505092915050565b60006080820190506132fe60008301876123fa565b61330b60208301866123fa565b6133186040830185612490565b818103606083015261332a81846132b0565b905095945050505050565b60008151905061334481612224565b92915050565b6000602082840312156133605761335f6121ee565b5b600061336e84828501613335565b91505092915050565b7f455243373231456e756d657261626c653a20636f6e736563757469766520747260008201527f616e7366657273206e6f7420737570706f727465640000000000000000000000602082015250565b60006133d36035836122be565b91506133de82613377565b604082019050919050565b60006020820190508181036000830152613402816133c6565b9050919050565b7f4e487b7100000000000000000000000000000000000000000000000000000000600052601260045260246000fd5b7f4552433732313a206d696e7420746f20746865207a65726f2061646472657373600082015250565b600061346e6020836122be565b915061347982613438565b602082019050919050565b6000602082019050818103600083015261349d81613461565b9050919050565b7f4552433732313a20746f6b656e20616c7265616479206d696e74656400000000600082015250565b60006134da601c836122be565b91506134e5826134a4565b602082019050919050565b60006020820190508181036000830152613509816134cd565b9050919050565b7f4e487b7100000000000000000000000000000000000000000000000000000000600052601160045260246000fd5b600061354a82612365565b915061355583612365565b925082820390508181111561356d5761356c613510565b5b92915050565b7f4e487b7100000000000000000000000000000000000000000000000000000000600052603160045260246000fdfea26469706673582212204f9f1efdee654734310355e31047c30bc4dd1e58bd2e4b12fe065f660417072164736f6c63430008120033",
  "linkReferences": {},
  "deployedLinkReferences": {}
}